:020000040800F2
:10000000102E002029020008493F0008453C000846
:10001000453F0008F9070008754700080000000088
:100020000000000000000000000000004140000847
:10003000110A000800000000C13F0008BD40000890
:10004000430200084302000843020008430200087C
:10005000430200084302000843020008430200086C
:10006000430200084302000843020008430200085C
:10007000430200084302000843020008430200084C
:1000800069090008790900084302000843020008D2
:10009000FD0700080D08000843020008430200089D
:1000A000430200084302000843020008430200081C
:1000B000430200084302000843020008430200080C
:1000C00043020008430200084302000843020008FC
:1000D00043020008430200084302000843020008EC
:1000E0004302000843020008430200080000000029
:1000F0000000000000000000000000000000000000
:100100000000000000000000430200084302000855
:100110004302000843020008430200087941000836
:10012000430200084302000843020008430200089B
:100130004302000800000000000000004302000825
:100140001D0800082D0800084302000843020008AB
:1001500000F002F800F059F814A696E8000CB2443A
:10016000B344DA4501D100F050F8BAE80F000FA609
:1001700096E83000A5EB040504EB0607AAEB07049C
:10018000A7F101074FEA15154FEA3414A4F1010451
:10019000AC4201D300F039F813F0010F18BFFB1A7D
:1001A00043F0010300F001F8DBE718470099000075
:1001B00020990000103A24BF78C878C1FAD85207B5
:1001C00024BF30C830C144BF04680C6070470000D1
:1001D000704700000023002400250026103A28BFA5
:1001E00078C1FBD8520728BF30C148BF0B607047A9
:1001F0001FB59DE8030000F0BFF900F08BF91FBDAB
:1002000010B5002000F04EFA10BD00F07AFA114649
:10021000FFF7EEFF06F00AF900F098FA03B4FFF7D3
:10022000EFFF03BC00F066FA094880470948004721
:10023000FEE7FEE7FEE7FEE7FEE7FEE7FEE7FEE796
:10024000FEE7FEE704480549054A064B70470000F3
:10025000754100085101000810280020102E0020D0
:10026000102A0020102A002070B5064600F068F918
:10027000056806F10B0020F00704B4429CBF002083
:1002800070BD2B466A68BAB11068A04210D304F161
:10029000080188423CBF5068586007D35168101964
:1002A00041601168091B016058601460101D70BD29
:1002B00013465268002AE7D12146284600F048F943
:1002C0000028DED170BD53EA020C00F069802DE9F0
:1002D000F04B4FF00006002B1FBFB3FA83F503FA73
:1002E00005F424FA05F65E4012BF1643B2FA82F511
:1002F00002FA05F4C5F120051EBF22FA05FC44EA06
:100300000C04203556EA044C4FEA144418BF641C10
:100310004FF000084FF00009904271EB030C39D305
:10032000002919BFB1FA81F701FA07F6B0FA80F790
:1003300000FA07F6C7F120071EBF20FA07FC46EABD
:100340000C062037B6FBF4FCA7EB0507103F07F0BF
:100350001F0BCBF120062CFA06F60CFA0BFB44BF60
:10036000B3460026202FA4BF5E464FF0000B5BEA89
:10037000060C08BF4FF0010B19EB0B0948EB060800
:10038000ABFB027C06FB02CC0BFB03CCC01B71EB6E
:100390000C01C1E70B46024641464846BDE8F08BDA
:1003A00013B5084318BF4FF0FF300146AFF300808C
:1003B000BDE81C4070470B460146184600F038B9AE
:1003C000032A40F2308010F0030C00F0158011F881
:1003D000013BBCF1020F624498BF11F801CB00F859
:1003E000013B38BF11F8013BA2F1040298BF00F8AD
:1003F00001CB38BF00F8013B11F0030300F025806A
:10040000083AC0F0088051F8043B083A51F804CB90
:10041000A0E80810F5E7121D5CBF51F8043B40F856
:10042000043BAFF30080D20724BF11F8013B11F861
:1004300001CB48BF11F8012B24BF00F8013B00F8A5
:1004400001CB48BF00F8012B704710B5203AC0F02F
:100450000B80B1E81850A0E81850B1E81850A0E897
:100460001850203ABFF4F5AF5FEA027C24BFB1E830
:100470001850A0E8185044BF18C918C0BDE8104073
:100480005FEA827C24BF51F8043B40F8043B08BF7C
:100490007047D20728BF31F8023B48BF11F8012B43
:1004A00028BF20F8023B48BF00F8012B704702F03C
:1004B000FF0343EA032242EA024200F002B84FF08F
:1004C000000200B5134694469646203922BFA0E8A4
:1004D0000C50A0E80C50B1F12001BFF4F7AF0907B0
:1004E00028BFA0E80C5048BF0CC05DF804EB8900A1
:1004F00028BF40F8042B08BF704748BF20F8022BE4
:1005000011F0804F18BF00F8012B704770477047FB
:100510007047000008487CB578440090074878444C
:10052000009C0546019004E020460168084480478D
:10053000241DAC42F8D17CBDB0950000B2950000FE
:100540000048704718000020704770477047704798
:1005500038B504460A4600206946AFF300800028FB
:1005600008BF38BD02460099204600F081F80120FE
:1005700038BD012000F0B7B8F8B5AFF300800546EC
:1005800000200C460C2000BF0646A819A0420DD939
:10059000324669460020AFF30080070008BF00F034
:1005A000A2F80098A04218BF0546C419FFF7C8FF7B
:1005B00005600746F01D20F007004619284600F0A8
:1005C0000AF8B44208BFF8BDA21B31463868BDE83E
:1005D000F84000F04DB800210160416070470C20E8
:1005E000704770B50446051FFFF7AAFF0068002C8E
:1005F00014BF446870BD002C18BFAC423CBF2046FD
:100600006468F8D301680A18AA4218BF456003D18C
:100610002A6805461144016028684119A1421CBF9F
:100620006C6070BD6168696021680844286070BDB5
:100630002DE9F041074615460E461020FFF714FE3F
:1006400004000AD06760C4E9026500F00DF8016893
:10065000216004600020BDE8F0810120FBE700007C
:1006600000487047100000200048704748000020F4
:10067000034640688C46002818BF88423CBF0346AA
:100680004068F8D318681844884207D00CF103007A
:1006900020F00700001D411A521A0146081D0A6089
:1006A000FFF79FBF2DE9F0410646FFF7DDFF8046CB
:1006B000454613E016B1E068B0420ED120682860CC
:1006C000D4E90101D8F8007088472046FFF789FF78
:1006D000D8F80000B842EBD100E025462C68002C89
:1006E000E8D1BDE8F08110B500F03EF8BDE810405B
:1006F00000F035B801491820ABBEFEE72600020025
:1007000070477546FFF7ACFFAE4605006946534695
:1007100020F00700854618B020B5FFF793FDBDE82F
:1007200020404FF000064FF000074FF000084FF058
:10073000000BAC46ACE8C009ACE8C009ACE8C009A5
:10074000ACE8C00921F007018D46704710B504469A
:10075000AFF300802046BDE81040FFF75FBD0028E2
:1007600001D0FFF7C7BF704710B5012805D00021A1
:1007700003A000F021F8012010BD09A1F8E7000056
:1007800053494752544D454D3A204F7574206F667A
:100790002068656170206D656D6F727900000000E2
:1007A0003A2048656170206D656D6F727920636FC6
:1007B000727275707465640070B505460C460A2047
:1007C00000E06D1C00F011F835B128780028F8D150
:1007D00002E0641C00F009F814B120780028F8D178
:1007E000BDE870400A20AFF3008008B569468DF877
:1007F00000000320ABBE08BDFFE7FEE780B540F672
:100800004830C2F2000000F0C3FB80BD80B540F666
:100810004830C2F2000000F0BBFB80BD80B540F65E
:100820007030C2F2000000F0B3FB80BD80B540F62E
:100830007030C2F2000000F0ABFB80BD80B584B028
:10084000039002910398006846F20041C4F200014F
:10085000884216D1FFE7039840F29001C2F20001EE
:1008600008600298886203980023019319461A468B
:1008700004F06EF9019B03980C211A4604F068F904
:1008800018E00398006846F60001C4F200018842AF
:100890000FD1FFE7039840F2D401C2F200010860D3
:1008A000029888620398702100231A4604F050F9D8
:1008B000FFE7FFE7039800F0CDFF0398022100F067
:1008C000B1F80398102100F0ADF80398012100F071
:1008D000A9F804B080BD000080B594B01290ADF8C6
:1008E00046101092ADF83E301298006846F2004172
:1008F000C4F20001884213D1FFE7BDF84600099019
:1009000000200A900B900C90BDF83E000D901298BC
:10091000109A09A908AB00F0AFF88DF84F001FE05E
:100920001298006846F60001C4F20001884213D113
:10093000FFE7BDF846000290002003900490059068
:10094000BDF83E0006901298109A02A901AB00F083
:1009500093F88DF84F0003E001208DF84F00FFE77A
:100960009DF84F0014B080BD80B540F69830C2F2BB
:10097000000000F0D1FF80BD80B540F6DC30C2F24F
:10098000000000F0C9FF80BD81B000904EF6FC5120
:10099000CEF20001086840F08070086041F2040166
:1009A000CEF200010020086041F20002CEF2000207
:1009B000116841F001011160009944F24022C0F237
:1009C0000F024A4340F20011C2F200010A600A68B5
:1009D00044F6D353C1F26203A2FB0332920940F200
:1009E0000413C2F200031A6009684DF68362C4F270
:1009F0001B32A1FB0221890C40F20812C2F2000254
:100A0000116040F21C11C2F20001086001B0704791
:100A10007047000081B0EFF3108072B60090FFE7DE
:100A2000FEE7000084B002900191029890F8200047
:100A30008DF803009DF80300012805D0FFE79DF81D
:100A4000030002280AD1FFE7019A02980168486969
:100A50001043486100208DF80F0008E00299486AB1
:100A600040F48020486201208DF80F00FFE79DF8D8
:100A70000F0004B07047000088B006900591049202
:100A80000393069890F820008DF8070006980068F8
:100A9000806800900598806808B9FFE700E0FFE7EC
:100AA0009DF80700012806D0FFE79DF807000228FF
:100AB00040F08080FFE79DF80300400700280CD439
:100AC000FFE79DF803000007002806D4FFE79DF824
:100AD0000300C006002864D5FFE70098C0F301605A
:100AE0000290029901208840039908600598806867
:100AF00068B9FFE705980168C06840EA4150069967
:100B00000968029A01EB0211C1F880010EE0059913
:100B10004A688868C96840EAC200084306990968BB
:100B2000029A01EB0211C1F88001FFE70598006904
:100B300006990968029A01EB0211C1F8840105982F
:100B4000007D01280CD1FFE706980068029900EBB0
:100B50000111D1F8840140F48070C1F88401FFE7ED
:100B60000498406806990968029A01EB0211C1F8DD
:100B70008C010498006806990968029A01EB021139
:100B8000C1F8880106980068029900EB0111D1F8BC
:100B9000800140F00100C1F8800100208DF81F00A5
:100BA00011E00699486A40F40010486201208DF86F
:100BB0001F0008E00699486A40F48020486201203E
:100BC0008DF81F00FFE79DF81F0008B07047000078
:100BD00086B004900391049800680190049890F8FE
:100BE00020008DF803009DF80300012806D0FFE7E0
:100BF0009DF80300022840F0B080FFE746F2004075
:100C0000C4F2000001900199D1F8000240F0010007
:100C1000C1F800020199D1F8000220F47C50C1F81B
:100C200000020398426A0199D1F8000240EA0220CA
:100C3000C1F800020398406900F01F0101208840BC
:100C40000290029A0199D1F81C029043C1F81C024B
:100C50000398C069F0B9FFE7029A0199D1F80C0234
:100C60009043C1F80C02039A9088D168526940EA17
:100C70000140019901EBC201C1F84002039A1088BA
:100C80009168526940EA0140019901EBC201C1F843
:100C90004402FFE70398C06901281ED1FFE7029ACA
:100CA0000199D1F80C021043C1F80C02039A908804
:100CB0001168526940EA0140019901EBC201C1F893
:100CC0004002039A90899168526940EA0140019973
:100CD00001EBC201C1F84402FFE70398806940B903
:100CE000FFE7029A0199D1F804029043C1F8040287
:100CF00007E0029A0199D1F804021043C1F80402F6
:100D0000FFE70398006940B9FFE7029A0199D1F81B
:100D100014029043C1F8140207E0029A0199D1F835
:100D200014021043C1F81402FFE70398006A012877
:100D300008D1FFE7029A0199D1F81C021043C1F8CB
:100D40001C02FFE70199D1F8000220F00100C1F870
:100D5000000200208DF8170008E00499486A40F46A
:100D60008020486201208DF81700FFE79DF81700EA
:100D700006B0704781B0009001B0704786B0049013
:100D8000039102920193049890F820008DF80300DB
:100D90009DF80300012806D0FFE79DF80300022814
:100DA00040F0E880FFE7039880B9FFE70498006807
:100DB000C068800748B9FFE70499486A40F400100A
:100DC000486201208DF81700DDE00FE0049800680C
:100DD0000069800748B9FFE70499486A40F40010A9
:100DE000486201208DF81700CDE0FFE70498006805
:100DF000039900EB0110D0F8B00100F00400029953
:100E000088600298806858B9FFE7049800680399E1
:100E100000EB0110D0F8B001400D029908600AE023
:100E200004980068039900EB0110D0F8B001C008E5
:100E300002994860FFE704980068039900EB0110ED
:100E4000D0F8B00100F002000299C8600498006870
:100E5000039900EB0110D0F8B40100F00F0008284E
:100E600004D3FFE70299082008610BE004980068AA
:100E7000039900EB0110D0F8B40100F00F000299C3
:100E80000861FFE704980068039900EB0110D0F8AF
:100E9000B40180B2000A029988610498006803993D
:100EA00000EB0110D0F8B401000C029948610498DD
:100EB0000068039900EB0110D0F8B801019908709F
:100EC00004980068039900EB0110D0F8B801000AFB
:100ED0000199487004980068039900EB0110D0F85C
:100EE000B801000C0199887004980068039900EB20
:100EF0000110D0F8B801000E0199C870049800687C
:100F0000039900EB0110D0F8BC0101990871049815
:100F10000068039900EB0110D0F8BC01000A0199A8
:100F2000487104980068039900EB0110D0F8BC01E7
:100F3000000C0199887104980068039900EB011076
:100F4000D0F8BC01000E0199C871039838B9FFE7C9
:100F500004980168C86840F02000C86006E0049862
:100F60000168086940F020000861FFE700208DF863
:100F7000170008E00499486A40F480204862012084
:100F80008DF81700FFE79DF8170006B070470000C6
:100F900080B58AB0099000200890099800684069DF
:100FA0000790099800684068069009980068806872
:100FB000059009980068C068049009980068006965
:100FC000039009980068806902909DF81C00C00792
:100FD000002800F09480FFE79DF81400C00758B384
:100FE000FFE709980168012088609DF814008007D8
:100FF000002804D5FFE7099800F076FC1BE09DF877
:1010000014004007002805D5FFE7089840F4006069
:1010100008900FE09DF814000007002805D5FFE7B1
:10102000089840F48050089003E0099800F058FCBC
:10103000FFE7FFE7FFE7FFE79DF81500C00760B394
:10104000FFE7099801684FF4807088609DF81500EB
:101050008007002804D5FFE7099800F04DFC1BE04D
:101060009DF815004007002805D5FFE7089840F4D3
:10107000005008900FE09DF815000007002805D5E6
:10108000FFE7089840F48040089003E0099800F0DA
:101090002FFCFFE7FFE7FFE7FFE79DF81600C0071B
:1010A00060B3FFE7099801684FF4803088609DF8CD
:1010B00016008007002804D5FFE7099800F024FCFB
:1010C0001BE09DF816004007002805D5FFE70898AB
:1010D00040F4004008900FE09DF81600000700283B
:1010E00005D5FFE7089840F48030089003E00998A0
:1010F00000F006FCFFE7FFE7FFE7FFE7FFE79DF8EB
:101100001C000007002810D5FFE79DF81000C0065E
:10111000002809D5FFE7089840F400700890099866
:1011200001681020C860FFE7FFE79DF81C0040073A
:1011300000280FD5FFE79DF810000007002808D50C
:10114000FFE7099801680820C860099800F0FEFAD6
:10115000FFE7FFE79DF81C00800700280BD5FFE79D
:1011600009980068C068800720B1FFE7099800F07F
:10117000F1FAFFE7FFE79DF81C004006002810D5B4
:10118000FFE79DF80C00C006002809D5FFE7089886
:1011900040F4806008900998016810200861FFE71A
:1011A000FFE79DF81C00800600280FD5FFE79DF89B
:1011B0000C000007002808D5FFE7099801680820FF
:1011C0000861099800F002FBFFE7FFE79DF81C00AB
:1011D000C00600280BD5FFE7099800680069800762
:1011E00020B1FFE7099800F0F5FAFFE7FFE79DF867
:1011F0001E00800700280FD5FFE79DF81800C006E5
:10120000002808D5FFE70998016810204860099870
:1012100000F01CFBFFE7FFE79DF81E00C00778B158
:10122000FFE79DF818000007002808D5FFE7099898
:10123000016808204860099800F06AFBFFE7FFE7B3
:101240009DF81D000006002840F18D80FFE79DF805
:1012500018004007002840F18180FFE79DF81D003D
:10126000C00750B1FFE79DF80800C00728B1FFE7AD
:10127000089840F001000890FFE79DF81D008007E6
:1012800000280BD5FFE79DF808008007002805D54A
:10129000FFE7089840F002000890FFE79DF81D0066
:1012A000400700280BD5FFE79DF8080040070028FD
:1012B00005D5FFE7089840F004000890FFE79DF887
:1012C0001D000007002848D5FFE79DF8080010F032
:1012D000700F42D0FFE7029800F0700001460191C4
:1012E000102814D0FFE70198202815D0FFE70198B7
:1012F000302816D0FFE70198402817D0FFE7019863
:10130000502818D0FFE70198602819D01DE00898F0
:1013100040F00800089019E0089840F0100008908C
:1013200014E0089840F0200008900FE0089840F082
:10133000400008900AE0089840F08000089005E01E
:10134000089840F48070089000E0FFE70998016871
:10135000886920F070008861FFE7FFE7099801685D
:1013600004204860FFE7089848B1FFE7089A099908
:10137000486A104348620998FFF7FCFCFFE70AB08F
:1013800080BD000080B584B00290029820B9FFE7CC
:1013900001208DF80F00E0E0029890F8200020B9BD
:1013A000FFE7029800F0DEF8FFE70298016808689E
:1013B00040F00100086001F013F80190FFE7029887
:1013C00000684068C007A8B9FFE701F009F8019973
:1013D000401A0B280DD3FFE70299486A40F4003009
:1013E00048620299052081F8200001208DF80F0045
:1013F000B3E0E4E702980168086820F002000860A2
:1014000000F0EEFF0190FFE7029800684068800757
:10141000002815D5FFE700F0E3FF0199401A0B28DB
:101420000DD3FFE70299486A40F400304862029900
:10143000052081F8200001208DF80F008DE0E3E702
:101440000298007E012807D1FFE70298016808682A
:1014500040F08000086006E002980168086820F00B
:1014600080000860FFE70298407E012807D1FFE76F
:1014700002980168086840F04000086006E00298A1
:101480000168086820F040000860FFE70298807E4D
:10149000012807D1FFE702980168086840F02000A2
:1014A000086006E002980168086820F020000860E3
:1014B000FFE70298C07E012807D1FFE70298016884
:1014C000086820F01000086006E0029801680868CB
:1014D00040F010000860FFE70298007F012807D164
:1014E000FFE702980168086840F00800086006E01D
:1014F00002980168086820F008000860FFE7029879
:10150000407F012807D1FFE702980168086840F092
:101510000400086006E002980168086820F00400F2
:101520000860FFE7029B19685A689868D3F80CC0F6
:1015300040EA0C00D3F810C040EA0C005B69184385
:10154000013A1043C861029900204862029A0121C1
:1015500082F820108DF80F00FFE79DF80F0004B00F
:1015600080BD000080B598B01790002016901590AF
:10157000149013901798006846F20041C4F20001DD
:1015800088426ED1FFE740F22410C2F200000168E9
:10159000013101600068012810D1FFE7FFE741F247
:1015A0001C00C4F20200016841F000710160006893
:1015B00000F0007012901298FFE7FFE7FFE741F29A
:1015C0001800C4F20200016841F0080101600068DF
:1015D00000F0080011901198FFE74FF4807013900D
:1015E00000201490159040F60040C4F201000B90CA
:1015F00013A90C9100F04CFD0B980C994FF400725C
:101600001392022214920322169200F041FDFFE78A
:101610000421C4F2010108681090109820F4C04021
:101620001090109840F0E0601090109840F48040C6
:10163000109010980860FFE714200790052108918A
:101640000022099200F0B0FF079800F0A3FF08996C
:10165000099A15200A9000F0A7FF0A9800F09AFF57
:1016600071E01798006846F60001C4F20001884254
:1016700068D1FFE7FFE741F21C00C4F202000168F5
:1016800041F080610160006800F080600F900F9869
:10169000FFE740F22410C2F200000168013101604E
:1016A0000068012810D1FFE7FFE741F21C00C4F2F7
:1016B0000200016841F000710160006800F00070F4
:1016C0000E900E98FFE7FFE7FFE741F21800C4F223
:1016D0000200016841F008010160006800F00800A4
:1016E0000D900D98FFE74FF4805013900020059067
:1016F0001490159040F60040C4F20100019013A927
:10170000029100F0C5FC019802994FF40052139227
:10171000022214920322169200F0BAFC059A40208D
:1017200003900521049100F03FFF039800F032FF81
:101730000499059A4120069000F036FF069800F0C3
:1017400029FFFFE7FFE718B080BD000081B00090DF
:1017500001B0704780B586B005900598006846F2E4
:101760000041C4F20001884212D1FFE7059840F21F
:101770009001C2F2000103910A1D049201F12003BD
:101780000021FFF7FBFA03990498896A88471BE058
:101790000598006846F60001C4F20001884212D1A3
:1017A000FFE7059840F2D401C2F2000101910A1D41
:1017B000029201F120030021FFF7E0FA019902985B
:1017C000896A8847FFE7FFE706B080BD81B00090D7
:1017D00001B0704780B586B005900598006846F264
:1017E0000041C4F20001884212D1FFE7059840F29F
:1017F0009001C2F2000103910A1D049201F120033D
:101800000121FFF7BBFA03990498896A88471BE016
:101810000598006846F60001C4F20001884212D122
:10182000FFE7059840F2D401C2F2000101910A1DC0
:10183000029201F120030121FFF7A0FA0199029819
:10184000896A8847FFE7FFE706B080BD81B0009056
:1018500001B0704780B584B00290029890F82000E3
:1018600001282FD1FFE70299022081F82000029879
:101870000168086820F00100086000F0B1FD0190E7
:10188000FFE7029800684068C007A8B1FFE700F0D2
:10189000A7FD0199401A0B280DD3FFE70299486A6A
:1018A00040F4003048620299052081F820000120B0
:1018B0008DF80F000FE0E4E70299002048628DF8F0
:1018C0000F0008E00299486A40F4002048620120B5
:1018D0008DF80F00FFE79DF80F0004B080BD0000F9
:1018E00081B0009001B0704781B0009001B07047A6
:1018F00081B0009001B0704781B0009001B0704796
:1019000081B0009001B0704781B0009001B0704785
:1019100081B0009001B0704780B5ACB02B902B988F
:10192000C06B00682A902B980068006829902A985C
:101930002B99096CC8404007002840F17581FFE7EA
:101940009DF8A4004007002840F16E81FFE72B9826
:10195000006800688006002807D4FFE72B9801681C
:10196000086820F004000860FFE72B9800688121D8
:10197000C4F202018842C0F0A880FFE72B980068FB
:101980000821C4F20201884203D1FFE70420289015
:1019900094E02B9800681C21C4F20201884203D114
:1019A000FFE74020279086E02B9800683021C4F2A2
:1019B0000201884204D1FFE74FF48060269077E06F
:1019C0002B9800684421C4F20201884204D1FFE749
:1019D0004FF48040259068E02B9800685821C4F2AD
:1019E0000201884204D1FFE74FF48020249059E09F
:1019F0002B9800686C21C4F20201884204D1FFE7F1
:101A00004FF4800023904AE02B9800688021C4F2B4
:101A10000201884204D1FFE74FF0806022903BE052
:101A20002B98006840F20841C4F20201884203D1B9
:101A3000FFE7042021902CE02B98006840F21C4125
:101A4000C4F20201884203D1FFE7402020901DE04C
:101A50002B98006840F23041C4F20201884204D160
:101A6000FFE74FF480601F900DE02B98016840F273
:101A70004442C4F202024FF48020914208BF4FF466
:101A800080401F90FFE71F982090FFE7209821904B
:101A9000FFE721982290FFE722982390FFE7239801
:101AA0002490FFE724982590FFE725982690FFE7EC
:101AB00026982790FFE727982890FFE7289840F27C
:101AC0000441C4F202010860A5E02B9800680821D7
:101AD000C4F20201884203D1FFE704201E9094E083
:101AE0002B9800681C21C4F20201884203D1FFE751
:101AF00040201D9086E02B9800683021C4F202013E
:101B0000884204D1FFE74FF480601C9077E02B9867
:101B100000684421C4F20201884204D1FFE74FF477
:101B200080401B9068E02B9800685821C4F20201A5
:101B3000884204D1FFE74FF480201A9059E02B9897
:101B400000686C21C4F20201884204D1FFE74FF41F
:101B5000800019904AE02B9800688021C4F20201AD
:101B6000884204D1FFE74FF0806018903BE02B984B
:101B7000006840F20841C4F20201884203D1FFE745
:101B8000042017902CE02B98006840F21C41C4F20E
:101B90000201884203D1FFE7402016901DE02B98F8
:101BA000006840F23041C4F20201884204D1FFE7EC
:101BB0004FF4806015900DE02B98016840F244428C
:101BC000C4F202024FF48020914208BF4FF48040DB
:101BD0001590FFE715981690FFE716981790FFE706
:101BE00017981890FFE718981990FFE719981A901E
:101BF000FFE71A981B90FFE71B981C90FFE71C98C3
:101C00001D90FFE71D981E90FFE71E980421C4F267
:101C100002010860FFE72B98C06A20B1FFE72B980C
:101C2000C16A8847FFE7B7E12A982B99096CC84039
:101C30008007002840F17F81FFE79DF8A40080071E
:101C4000002840F17881FFE72B9800680068800643
:101C500000280BD4FFE72B980168086820F00A00E1
:101C600008602B99012081F82100FFE72B9800687C
:101C70008121C4F202018842C0F0A880FFE72B98BE
:101C800000680821C4F20201884203D1FFE7022064
:101C9000149094E02B9800681C21C4F20201884241
:101CA00003D1FFE72020139086E02B9800683021B5
:101CB000C4F20201884204D1FFE74FF40070129091
:101CC00077E02B9800684421C4F20201884204D1D5
:101CD000FFE74FF40050119068E02B9800685821FE
:101CE000C4F20201884204D1FFE74FF400301090A3
:101CF00059E02B9800686C21C4F20201884204D19B
:101D0000FFE74FF400100F904AE02B980068802105
:101D1000C4F20201884204D1FFE74FF000700E9038
:101D20003BE02B98006840F20841C4F2020188426F
:101D300003D1FFE702200D902CE02B98006840F2C1
:101D40001C41C4F20201884203D1FFE720200C901D
:101D50001DE02B98006840F23041C4F20201884235
:101D600004D1FFE74FF400700B900DE02B98016851
:101D700040F24442C4F202024FF40030914208BFE4
:101D80004FF400500B90FFE70B980C90FFE70C9876
:101D90000D90FFE70D980E90FFE70E980F90FFE76C
:101DA0000F981090FFE710981190FFE7119812908C
:101DB000FFE712981390FFE713981490FFE7149829
:101DC00040F20441C4F202010860A5E02B980068CB
:101DD0000821C4F20201884203D1FFE702200A90E1
:101DE00094E02B9800681C21C4F20201884203D1C0
:101DF000FFE72020099086E02B9800683021C4F28C
:101E00000201884204D1FFE74FF40070089077E0A8
:101E10002B9800684421C4F20201884204D1FFE7F4
:101E20004FF40050079068E02B9800685821C4F2E6
:101E30000201884204D1FFE74FF40030069059E0D8
:101E40002B9800686C21C4F20201884204D1FFE79C
:101E50004FF4001005904AE02B9800688021C4F2EE
:101E60000201884204D1FFE74FF0007004903BE08C
:101E70002B98006840F20841C4F20201884203D165
:101E8000FFE7022003902CE02B98006840F21C41F1
:101E9000C4F20201884203D1FFE7202002901DE036
:101EA0002B98006840F23041C4F20201884204D10C
:101EB000FFE74FF4007001900DE02B98016840F2AD
:101EC0004442C4F202024FF40030914208BF4FF482
:101ED00000500190FFE701980290FFE702980390FD
:101EE000FFE703980490FFE704980590FFE7059843
:101EF0000690FFE706980790FFE707980890FFE72E
:101F000008980990FFE709980A90FFE70A980421CA
:101F1000C4F202010860FFE7FFE72B99002081F877
:101F20002000FFE72B98806A20B1FFE72B98816A99
:101F30008847FFE72FE02A982B99096CC8400007D3
:101F4000002827D5FFE79DF8A4000007002821D529
:101F5000FFE72B980168086820F00E0008602B98B6
:101F6000C26B016C012000FA01F151602B9988636A
:101F70002B9981F82100FFE72B99002081F82000A0
:101F8000FFE72B98006B20B1FFE72B98016B884788
:101F9000FFE7FFE7FFE7FFE72CB080BD83B00190CC
:101FA00000200090019820B9FFE701208DF80B0078
:101FB0006AE00198006840F20741C4F202018842D9
:101FC00018D8FFE7019908684FF6F872CBF6FD7252
:101FD00010444CF6CD42CCF6CC42A0FB02026FF08E
:101FE000030000EA9200086401990020C4F2020094
:101FF000C86318E0019908684FF6F832CBF6FD7215
:1020000010444CF6CD42CCF6CC42A0FB02026FF05D
:10201000030000EA92000864019940F20040C4F213
:102020000200C863FFE70199022081F821000198AE
:10203000006800680090009843F6F07188430090B3
:1020400001994868D1F808C0CB680A6940EA0C00D9
:10205000184310434A6910438A691043C969014310
:102060000098084300900098019909680860019958
:1020700000208863019A012182F82110019981F8DA
:1020800020008DF80B00FFE79DF80B0003B07047B0
:1020900090B00F900E9100200D900990FFE70E98E0
:1020A00000680D99C840002800F07F81FFE70D9976
:1020B000012088400C900E9800680C9908400B9005
:1020C0000B980C99884240F06C81FFE70E984068AD
:1020D0000590002851D0FFE7059801283AD0FFE786
:1020E000059802283FD0FFE7059803285FD0FFE757
:1020F0000598112832D0FFE70598122838D0FFE75D
:1021000005980021C1F21101884236D0FFE70598F9
:102110000021C1F2120188422FD0FFE7059800216B
:10212000C1F22101884228D0FFE705980021C1F2C1
:102130002201884221D0FFE705980021C1F2310138
:1021400088421AD0FFE705980021C1F23201884287
:1021500013D02FE00E98C06809902CE00E98C0684C
:102160000430099027E00E98C0680830099022E0FA
:102170000E98C0680C3009901DE00E98806818B960
:10218000FFE70420099011E00E988068012806D12D
:10219000FFE7082009900C980F99086105E00820D6
:1021A00009900C980F994861FFE7FFE703E00020D2
:1021B000099000E0FFE70B98FF2803D8FFE70F988E
:1021C000049003E00F9804300490FFE7049808900F
:1021D0000B98FF2804D8FFE70D988000039006E0D5
:1021E0000D996FF01F0000EB81000390FFE703984B
:1021F000079008980068079A0F2191408843099931
:1022000091400843089908600E98C079C0060028DC
:1022100040F1C680FFE7FFE741F21800C4F2020078
:10222000016841F001010160006800F001000690C2
:102230000698FFE70D9820F003000821C4F2010181
:1022400040580A900D9800F0030081000F2000FA1A
:1022500001F10A9888430A900F9840F60001C4F2F1
:102260000101884203D1FFE70020029026E00F9889
:1022700040F60041C4F20101884203D1FFE701208A
:10228000019018E00F9841F20001C4F20101884268
:1022900003D1FFE7022000900AE00F9941F20042CB
:1022A000C4F201020420914208BF03200090FFE71E
:1022B00000980190FFE701980290FFE702980D99BE
:1022C00001F00301890000FA01F10A9808430A901D
:1022D0000A980D9921F003010822C4F201028850E6
:1022E0000E988079C006002809D5FFE70B9A40F2C6
:1022F0000841C4F2010108681043086008E00B9A25
:1023000040F20841C4F20101086890430860FFE709
:102310000E9880798006002809D5FFE70B9A40F2D5
:102320000C41C4F2010108681043086008E00B9AF0
:1023300040F20C41C4F20101086890430860FFE7D5
:102340000E9880798007002809D5FFE70B9A40F2A4
:102350000441C4F2010108681043086008E00B9AC8
:1023600040F20441C4F20101086890430860FFE7AD
:102370000E988079C00748B1FFE70B9A40F2004100
:10238000C4F2010108681043086008E00B9A40F2AB
:102390000041C4F20101086890430860FFE7FFE7CD
:1023A000FFE70D9801300D9079E610B070470000FE
:1023B00082B00190ADF802108DF801209DF8010067
:1023C00028B1FFE7BDF802000199086105E0BDF8FA
:1023D0000200000401990861FFE702B070470000A5
:1023E00042F2F060C2F200000068704740F205005F
:1023F000C2F20000027842F2F061C2F20001086805
:10240000104408607047000080B542F20001C4F239
:102410000201086840F010000860032000F0DEF8B8
:102420000F2000F005F800F07BF8002080BD0000D0
:1024300080B58CB00B900020049003908DF80700BD
:10244000FFE741F21C00C4F20200016841F02001E4
:102450000160006800F0200000900098FFE706A8E7
:1024600002A900F0EFF909980490049820B9FFE759
:1024700000F018FA059004E000F014FA400005900E
:10248000FFE705984DF68361C4F21B31A0FB010103
:102490004FF0FF3000EB9140039040F66840C2F2ED
:1024A000000041F20041C4F20001016040F2E73156
:1024B000C16003994160002101618160816100F088
:1024C00087FF8DF807009DF8070028BBFFE740F65F
:1024D0006840C2F2000000F0CDFF8DF807009DF8C3
:1024E0000700C0B9FFE7372000F054F80B980F2819
:1024F0000CD8FFE70B993720002200F055F80B9815
:1025000040F20801C2F20001086003E001208DF8EA
:102510000700FFE7FFE7FFE79DF807000CB080BD6D
:1025200080B584B0FFE741F21800C4F202000168F0
:1025300041F001010160006800F001000390039880
:10254000FFE7FFE741F21C00C4F20200016841F01E
:1025500080510160006800F0805002900298FFE70F
:102560006FF001000F21002200F01EF8FFE70421A8
:10257000C4F2010108680190019820F0E060019028
:10258000019840F00070019001980860FFE704B0E6
:1025900080BD000080B582B08DF807009DF907006E
:1025A00003F07AFE02B080BD80B586B08DF81700CA
:1025B000049103920020029003F086FE02909DF9A0
:1025C0001700019002980499039A01F0BFFC01469C
:1025D000019803F081FE06B080BD000080B582B096
:1025E0000190019803F09AFE02B080BD80B584B0DE
:1025F00002900191029820B9FFE701208DF80F00A9
:102600001BE1019842F20001C4F20201096801F0E5
:102610000701884216D9FFE742F20000C4F2020027
:10262000016821F00701019A11430160006800F080
:1026300007000199884204D0FFE701208DF80F00C0
:10264000FBE0FFE702980078800700282AD5FFE723
:10265000029800784007002809D5FFE741F20401FD
:10266000C4F20201086840F4E0600860FFE70298E5
:1026700000780007002809D5FFE741F20401C4F201
:102680000201086840F460500860FFE741F204016D
:10269000C4F20201086820F0F000029A9268104328
:1026A0000860FFE702980078C007002860D0FFE7C5
:1026B0000298406801280ED1FFE741F20000C4F201
:1026C000020000688003002804D4FFE701208DF891
:1026D0000F00B2E021E00298406802280ED1FFE727
:1026E00041F20000C4F2020000688001002804D416
:1026F000FFE701208DF80F009FE00DE041F20000A0
:10270000C4F2020000688007002804D4FFE701201B
:102710008DF80F0091E0FFE7FFE741F20401C4F2FA
:102720000201086820F00300029A52681043086012
:10273000FFF756FE0090FFE741F20400C4F20200EA
:10274000006800F00C0002994968B0EB810F0ED0D0
:10275000FFE7FFF745FE0099401A41F289318842B0
:1027600004D3FFE703208DF80F0066E0E4E7FFE7FE
:10277000019842F20001C4F20201096801F0070168
:10278000884216D2FFE742F20000C4F2020001685C
:1027900021F00701019A11430160006800F0070071
:1027A0000199884204D0FFE701208DF80F0044E032
:1027B000FFE702980078400700280CD5FFE741F2B8
:1027C0000401C4F20201086820F4E060029AD268B1
:1027D00010430860FFE702980078000700280DD535
:1027E000FFE741F20401C4F20201086820F46050DE
:1027F000029A126940EAC2000860FFE700F076F82A
:1028000041F20401C4F202010968C9B20A0949F699
:10281000D211C0F60001895CC84040F20001C2F24A
:102820000001086040F20800C2F200000068FFF7F3
:10283000FFFD00208DF80F00FFE79DF80F0004B0AA
:1028400080BD000082B00190009101990F200860C6
:1028500041F20400C4F20200016801F00301019A90
:102860005160016801F0F001019A9160016801F482
:10287000E061019AD160006800F46050C0080199DD
:10288000086142F20000C4F20200006800F0070094
:102890000099086002B0704740F20000C2F20000E8
:1028A0000068704780B5FFF7F7FF41F20401C4F2FA
:1028B00002010968C1F3022249F6E211C0F60001E3
:1028C000895CC84080BD000080B5FFF7E5FF41F29C
:1028D0000401C4F202010968C1F3C22249F6E211FF
:1028E000C0F60001895CC84080BD000080B588B09A
:1028F00000200790069005900490039002900190AC
:1029000041F20400C4F2020000680790079800F04A
:102910000C0001460091002878D0FFE700980428B9
:1029200004D0FFE70098082806D070E041F20020AC
:10293000C0F27A00039070E00798C0F3834149F633
:10294000EA10C0F60000405C04909DF81E00C0072D
:10295000002850D0FFE741F22C00C4F202000168C9
:1029600001F00F0249F6F811C0F60001895C0691EA
:102970000068C003002825D5FFE741F22C00C4F20F
:1029800002000168CAB2012101EB12110291006834
:1029900000F47061022000EB11200190019804996D
:1029A000A0FB010141F20022C0F27A02A0FB020367
:1029B00001FB0231029A069BA2FB0323FDF783FC75
:1029C00005900AE0049841F20021C0F27A014843E0
:1029D0000699B0FBF1F00590FFE7049849F6EA117B
:1029E000C0F60001497B884204D1FFE70598400802
:1029F0000590FFE707E0049840F60011C0F23D01A2
:102A000048430590FFE70598039006E0FFE741F291
:102A10000020C0F27A000390FFE7039808B080BD61
:102A200080B586B00490049820B9FFE701208DF8A6
:102A30001700EFE304980078C007002800F0AE808C
:102A4000FFE741F20400C4F20200006800F00C004D
:102A5000042813D0FFE741F20400C4F2020000682A
:102A600000F00C0008281BD1FFE741F20400C4F27B
:102A700002000068C003002812D5FFE741F2000001
:102A8000C4F2020000688003002808D5FFE704981C
:102A9000806820B9FFE701208DF81700BAE37CE0D9
:102AA000FFE704988068B0F5803F09D1FFE741F265
:102AB0000001C4F20201086840F48030086032E08E
:102AC0000498806868B9FFE741F20001C4F202018E
:102AD000086820F480300860086820F480200860CE
:102AE00020E004988068B0F5A02F0DD1FFE741F2F7
:102AF0000001C4F20201086840F480200860086800
:102B000040F4803008600CE041F20001C4F20201A0
:102B1000086820F480300860086820F4802008608D
:102B2000FFE7FFE7FFE7FFE704988068D0B1FFE722
:102B3000FFF756FC0390FFE741F20000C4F20200E9
:102B40000068800300280CD4FFE7FFF749FC0399D5
:102B5000401A652804D3FFE703208DF8170059E3D6
:102B6000EAE719E0FFF73CFC0390FFE741F20000C1
:102B7000C4F202000068800300280CD5FFE7FFF7CD
:102B80002FFC0399401A652804D3FFE703208DF832
:102B900017003FE3EAE7FFE7FFE7FFE70498007865
:102BA0008007002840F18D80FFE741F20400C4F265
:102BB0000200006810F00C0F13D0FFE741F2040090
:102BC000C4F20200006800F00C00082829D1FFE7D9
:102BD00041F20400C4F202000068C003002820D4BF
:102BE000FFE741F20000C4F20200006880070028FD
:102BF00009D5FFE704984069012804D0FFE70120C8
:102C00008DF8170006E341F20001C4F202010868E2
:102C100020F0F800049A926940EAC2000860FFE7D9
:102C20004EE00498406958B3FFE70021C4F2422106
:102C300001200860FFF7D4FB0390FFE741F200009A
:102C4000C4F202000068800700280CD4FFE7FFF7F9
:102C5000C7FB0399401A032804D3FFE703208DF82C
:102C60001700D7E2EAE741F20001C4F20201086866
:102C700020F0F800049A926940EAC20008601EE061
:102C80000021C4F2422100200860FFF7A9FB039055
:102C9000FFE741F20000C4F202000068800700284C
:102CA0000CD5FFE7FFF79CFB0399401A032804D3D8
:102CB000FFE703208DF81700ACE2EAE7FFE7FFE744
:102CC000FFE7049800780007002848D5FFE704983C
:102CD000C06918B3FFE740F28041C4F242210120ED
:102CE0000860FFF77DFB0390FFE741F22400C4F288
:102CF00002000068800700280CD4FFE7FFF770FB94
:102D00000399401A032804D3FFE703208DF8170026
:102D100080E2EAE7012001F075F91FE040F280410E
:102D2000C4F2422100200860FFF75AFB0390FFE73E
:102D300041F22400C4F202000068800700280CD58C
:102D4000FFE7FFF74DFB0399401A032804D3FFE781
:102D500003208DF817005DE2EAE7FFE7FFE704983C
:102D600000784007002840F1D880FFE700208DF868
:102D7000070041F21C00C4F202000068C0000028F5
:102D800013D4FFE7FFE741F21C00C4F20200016820
:102D900041F080510160006800F080500090009880
:102DA000FFE701208DF80700FFE747F20000C4F2BB
:102DB00000000068C005002822D4FFE747F20001A8
:102DC000C4F20001086840F480700860FFF708FB57
:102DD0000390FFE747F20000C4F200000068C0055E
:102DE00000280CD4FFE7FFF7FBFA0399401A652887
:102DF00004D3FFE703208DF817000BE2EAE7FFE7B3
:102E0000FFE704980069012809D1FFE741F220019A
:102E1000C4F20201086840F00100086031E0049843
:102E2000006968B9FFE741F22001C4F202010868B5
:102E300020F001000860086820F0040008601FE02E
:102E40000498006905280DD1FFE741F22001C4F282
:102E50000201086840F004000860086840F00100C2
:102E600008600CE041F22001C4F20201086820F081
:102E700001000860086820F004000860FFE7FFE731
:102E8000FFE7FFE704980069E0B1FFE7FFF7A8FA62
:102E90000390FFE741F22000C4F2020000688007BF
:102EA00000280ED4FFE7FFF79BFA0399401A41F27E
:102EB0008931884204D3FFE703208DF81700A9E188
:102EC000E8E71BE0FFF78CFA0390FFE741F22000F0
:102ED000C4F202000068800700280ED5FFE7FFF764
:102EE0007FFA0399401A41F28931884204D3FFE7FF
:102EF00003208DF817008DE1E8E7FFE79DF8070054
:102F0000012809D1FFE741F21C01C4F2020108685F
:102F100020F080500860FFE7FFE70498C06A0028AF
:102F200000F0B780FFE741F20400C4F2020000683D
:102F3000C003002817D5FFE741F20400C4F20200E5
:102F4000006800F00C0008280DD1FFE741F22C00CA
:102F5000C4F202000068C003002804D5FFE7012086
:102F60008DF8170056E10498C06A022868D1FFE77F
:102F700041F20000C4F202000068C000002810D531
:102F8000FFE741F22C00C4F20200006800F0F000FC
:102F90000499496B884204D0FFE701208DF817009F
:102FA00038E16821C4F2422100200860FFF718FAD6
:102FB0000390FFE741F20000C4F202000068000144
:102FC00000280CD5FFE7FFF70BFA0399401A652894
:102FD00004D3FFE703208DF817001BE1EAE741F275
:102FE0002C01C4F20201086820F0F000049A526B30
:102FF00010430860086820F47060049A126B104354
:1030000008606821C4F2422101200860FFF7E8F956
:103010000390FFE741F20000C4F2020000680001E3
:1030200000280CD4FFE7FFF7DBF90399401A652865
:1030300004D3FFE703208DF81700EBE0EAE726E072
:1030400041F22C01C4F20201086820F480300860CB
:103050006821C4F2422100200860FFF7C1F9039003
:10306000FFE741F20000C4F20200006800010028FE
:103070000CD5FFE7FFF7B4F90399401A652804D38C
:10308000FFE703208DF81700C4E0EAE7FFE7FFE75A
:10309000FFE70498006A002800F0B880FFE741F2DB
:1030A0000400C4F20200006800F00C00082800F0E0
:1030B0008780FFE70498006A022861D1FFE760215A
:1030C000C4F2422100200860FFF78AF90390FFE76D
:1030D00041F20000C4F202000068800100280CD513
:1030E000FFE7FFF77DF90399401A032804D3FFE7B0
:1030F00003208DF817008DE0EAE70498406AB0F5E8
:10310000803F11D1FFE70498426841F22C01C4F2DC
:103110000201086810430860086820F00F00049A54
:10312000D26810430860FFE741F20401C4F20201D3
:10313000086820F47410049B5A6A9B6A1A4310436F
:1031400008606021C4F2422101200860FFF748F9BD
:103150000390FFE741F20000C4F202000068800122
:1031600000280CD4FFE7FFF73BF90399401A032826
:1031700004D3FFE703208DF817004BE0EAE71EE0D9
:103180006021C4F2422100200860FFF729F9039072
:10319000FFE741F20000C4F202000068800100284D
:1031A0000CD5FFE7FFF71CF90399401A032804D355
:1031B000FFE703208DF817002CE0EAE7FFE724E0A3
:1031C0000498006A012804D1FFE701208DF8170058
:1031D00020E041F20400C4F202000068029002986C
:1031E00000F480300499496A884208D1FFE70298C8
:1031F00000F470100499896A884204D0FFE7012026
:103200008DF8170006E0FFE7FFE7FFE700208DF8E5
:103210001700FFE79DF8170006B080BD81B0009051
:1032200001B0704781B0009001B0704784B0029047
:10323000019100200090FFE7029890F83C000128DF
:1032400004D1FFE702208DF80F0044E0029901202D
:1032500081F83C00FFE7FFE7009820F0FF000199AC
:10326000C96808430090009820F44070019989686B
:1032700008430090009820F4806001994968084351
:103280000090009820F400600199096808430090BC
:10329000009820F480500199096908430090009833
:1032A00020F400500199496908430090009820F4E7
:1032B00080400199C9690843009000980299096803
:1032C0004864FFE70299002081F83C00FFE70020F6
:1032D0008DF80F00FFE79DF80F0004B07047000065
:1032E00085B003900291FFE7039890F83C00012815
:1032F00004D1FFE702208DF8130064E00399012058
:1033000081F83C00FFE7FFE70399022081F83D00C8
:1033100003980068406801900398006880680090F6
:10332000019820F07000019002980168019808430C
:10333000019001980399096848600398006842F673
:103340000041C4F20101884221D0FFE703980068E0
:10335000B0F1804F1BD0FFE70398006840F20041B6
:10336000C4F20001884212D0FFE70398006840F6DB
:103370000001C4F20001884209D0FFE70398006809
:1033800040F60041C4F2000188420ED1FFE70098E8
:1033900020F0800000900298416800980843009057
:1033A0000098039909688860FFE70399012081F874
:1033B0003D00FFE70399002081F83C00FFE7002073
:1033C0008DF81300FFE79DF8130005B0704700006B
:1033D00080B582B00090009820B9FFE701208DF8F9
:1033E00007003FE0009890F83D0040B9FFE70099E2
:1033F000002081F83C00009800F038F8FFE70099C1
:10340000022081F83D00009951F8040B00F0BCFE49
:103410000099012081F84600FFE70099012081F81A
:103420003E00009981F83F00009981F84000009922
:1034300081F84100FFE7FFE70099012081F8420091
:10344000009981F84300009981F84400009981F8BF
:103450004500FFE70099012081F83D0000208DF82C
:103460000700FFE79DF8070002B080BD81B0009023
:1034700001B0704783B00190019890F83D00012899
:1034800004D0FFE701208DF80B0050E001990220E5
:1034900081F83D0001980168C86840F00100C860EB
:1034A0000198006842F60041C4F20101884221D02F
:1034B000FFE701980068B0F1804F1BD0FFE701984B
:1034C000006840F20041C4F20001884212D0FFE7D8
:1034D0000198006840F60001C4F20001884209D05A
:1034E000FFE70198006840F60041C4F200018842FD
:1034F00012D1FFE701980068806800F00700009093
:103500000098062807D0FFE701980168086840F096
:1035100001000860FFE706E001980168086840F0D4
:1035200001000860FFE700208DF80B00FFE79DF821
:103530000B0003B07047000081B0009001B07047ED
:1035400080B582B0019001980068006900F0020126
:103550000020B0EB510F28D0FFE701980068C06849
:1035600000F002010020B0EB510F1DD0FFE70198E1
:1035700001686FF002000861019901200877019845
:1035800000688069800720B1FFE70198FFF7D4FF4A
:1035900006E0019800F042F9019800F051FAFFE7C7
:1035A000019900200877FFE7FFE7019800680069AC
:1035B00000F004010020B0EB910F29D0FFE7019843
:1035C0000068C06800F004010020B0EB910F1ED02D
:1035D000FFE7019801686FF004000861019902207B
:1035E000087701980068806910F4407F04D0FFE7F5
:1035F0000198FFF7A1FF06E0019800F00FF901988C
:1036000000F01EFAFFE7019900200877FFE7FFE7C7
:1036100001980068006900F008010020B0EBD10FAC
:1036200028D0FFE701980068C06800F0080100207A
:10363000B0EBD10F1DD0FFE7019801686FF00800D3
:10364000086101990420087701980068C069800723
:1036500020B1FFE70198FFF76FFF06E0019800F047
:10366000DDF8019800F0ECF9FFE7019900200877F8
:10367000FFE7FFE701980068006900F010010020F3
:10368000B0EB111F29D0FFE701980068C06800F077
:1036900010010020B0EB111F1ED0FFE70198016858
:1036A0006FF0100008610199082008770198006800
:1036B000C06910F4407F04D0FFE70198FFF73CFF9A
:1036C00006E0019800F0AAF8019800F0B9F9FFE7C8
:1036D000019900200877FFE7FFE70198006800697B
:1036E000C00780B1FFE701980068C068C00748B113
:1036F000FFE7019801686FF001000861019800F090
:10370000A3F9FFE7FFE7019800680069C1B2002054
:10371000B0EBD11F13D0FFE701980068C068C1B2B9
:103720000020B0EBD11F09D0FFE7019801686FF0CE
:10373000800008610198FFF771FDFFE7FFE701983E
:103740000068006900F040010020B0EB911F14D028
:10375000FFE701980068C06800F040010020B0EB6E
:10376000911F09D0FFE7019801686FF040000861E0
:10377000019800F07BF9FFE7FFE701980068006916
:1037800000F020010020B0EB511F14D0FFE701989A
:103790000068C06800F020010020B0EB511F09D084
:1037A000FFE7019801686FF0200008610198FFF7BA
:1037B00039FDFFE7FFE702B080BD000080B586B0AD
:1037C00005900020049003900290019005980068F5
:1037D00042F60041C4F2010188421DD1FFE7FFE734
:1037E00041F21800C4F20200016841F004010160D6
:1037F000006800F0040000900098FFE74FF480603C
:10380000019002200290049040F60000C4F20100F2
:1038100001A9FEF73DFCFFE706B080BD81B0009036
:1038200001B0704780B586B00490039102920020E9
:103830008DF80700FFE7049890F83C00012804D1B8
:10384000FFE702208DF8170089E00499012081F834
:103850003C00FFE7FFE7029800900C2800F2708020
:103860000099DFE801F0076D6D6D206D6D6D3A6DAB
:103870006D6D530004980068039900F00DFD0498E5
:103880000168886940F008008861049801688869C7
:1038900020F004008861039802690498016888692F
:1038A0001043886150E004980068039900F05CFDC3
:1038B00004980168886940F4006088610498016890
:1038C000886920F48060886103980269049801681F
:1038D000886940EA0220886136E00498006803990C
:1038E00000F0AEFD04980168C86940F00800C861A6
:1038F00004980168C86920F00400C861039802694F
:1039000004980168C8691043C8611DE00498006804
:10391000039900F001FE04980168C86940F4006052
:10392000C86104980168C86920F48060C861039880
:10393000026904980168C86940EA0220C86103E08E
:1039400001208DF80700FFE7FFE70499002081F8C8
:103950003C00FFE79DF807008DF81700FFE79DF892
:10396000170006B080BD000080B582B000900098BE
:1039700020B9FFE701208DF807003FE0009890F89C
:103980003D0040B9FFE70099002081F83C00009815
:1039900000F038F8FFE70099022081F83D00009917
:1039A00051F8040B00F0F0FB0099012081F846006B
:1039B000FFE70099012081F83E00009981F83F005F
:1039C000009981F84000009981F84100FFE7FFE786
:1039D0000099012081F84200009981F84300009984
:1039E00081F84400009981F84500FFE70099012023
:1039F00081F83D0000208DF80700FFE79DF80700E3
:103A000002B080BD82B001900198006842F600418A
:103A1000C4F20101884210D1FFE7FFE741F218002C
:103A2000C4F20200016841F400610160006800F422
:103A3000006000900098FFE7FFE702B070470000C9
:103A400081B0009001B0704780B582B001900198BC
:103A5000006841F20041C4F20001884203D1FFE74F
:103A6000FEF7C4FCFFE702B080BD000081B000900B
:103A700001B0704780B582B00090009820B9FFE790
:103A800001208DF8070040E00098806908B1FFE749
:103A900000E0FFE7009890F8410040B9FFE7009987
:103AA000002081F84000009800F034F8FFE700990A
:103AB000242081F8410000980168C86820F4005073
:103AC000C860009800F0F8FD00980168086920F4CB
:103AD0009040086100980168486920F02A00486118
:103AE00000980168C86840F40050C8600099002040
:103AF0004864009A202182F84110009A82F842100E
:103B0000009948638DF80700FFE79DF8070002B0B1
:103B100080BD000080B58CB00B9000200A90099009
:103B2000089007900B98006844F20041C4F200012D
:103B3000884240F08480FFE7FFE741F21C00C4F2B6
:103B40000200016841F400310160006800F40030B7
:103B500006900698FFE7FFE741F21800C4F2020062
:103B6000016841F004010160006800F00400059064
:103B70000598FFE7042007900220089003200A9090
:103B800040F60000C4F20100019007A90291FEF77F
:103B90007FFA019802990822079200220392089264
:103BA0000992FEF775FA039940F69830C2F20000C8
:103BB00004906C22C4F202020260416081608022A3
:103BC000C2600161416181614FF40051C161FEF742
:103BD000E5F918B1FFE7FCF71DFFFFE7FFE70B98DA
:103BE00040F69831C2F20001C1630B984862FFE7CA
:103BF00040F6DC30C2F2000000908021C4F20201E5
:103C0000016010214160002181608022C260016159
:103C1000416181614FF40051C161FEF7BFF918B1F4
:103C2000FFE7FCF7F7FEFFE7FFE70B9840F6DC3114
:103C3000C2F2000181630B984862FFE7FFE70CB016
:103C400080BD0000FFE7FEE780B582B040F6483057
:103C5000C2F20000019046F20041C4F2000101608E
:103C60000421416000218160C1604FF48022026123
:103C70004FF4001242610176012242768176C176CC
:103C800001774177FDF77EFB18B1FFE7FCF7C2FE35
:103C9000FFE702B080BD000080B582B040F6703012
:103CA000C2F20000019046F60001C4F2000101607A
:103CB0000421416000218160C1604FF40032026143
:103CC0004FF4800242610176012242768276C1760B
:103CD00001774177FDF756FB18B1FFE7FCF79AFE35
:103CE000FFE702B080BD000080B586B0FFE741F27B
:103CF0001400C4F20200016841F001010160006893
:103D000000F0010005900598FFE7102001900521C3
:103D1000029100220392FEF747FC0198FEF73AFC5D
:103D20000299039A11200490FEF73EFC0498FEF7D6
:103D300031FC06B080BD000080B582B044F2650061
:103D4000C0F6000049F60822C0F6000200210191E9
:103D500002F02CFC019940F64432C2F200021060DD
:103D600044F28500C0F6000049F62C22C0F600029D
:103D700002F01CFC41F2DC61C2F20001086002B0FA
:103D800080BD000080B58AB000200990089007909F
:103D90000690FFE741F21800C4F20200016841F00A
:103DA00020010160006800F0200005900598FFE701
:103DB000FFE741F21800C4F20200016841F004017B
:103DC0000160006800F0040004900498FFE7FFE73A
:103DD00041F21800C4F20200016841F008010160DC
:103DE000006800F0080003900398FFE740F60040E9
:103DF000C4F201000290032101910022FEF7D8FADB
:103E000001990298069101210791022108910991D7
:103E100006A9FEF73DF90AB080BD000080B594B058
:103E20000021019113911291119110910F910E9116
:103E30000D910C910B910A910991089107910691AE
:103E400005910491039140F62040C2F200000290D7
:103E500042F60042C4F20102026024224260816004
:103E600040F2E732C2600161416180218161FFF768
:103E70007BFD18B1FFE7FCF7CDFDFFE700201290B6
:103E8000139040F62040C2F2000012A9FFF728FA72
:103E900018B1FFE7FCF7BEFDFFE760200B900020A4
:103EA0000C900D900E900F901090119040F62040C5
:103EB000C2F200000BA90822FFF7B4FC18B1FFE71B
:103EC000FCF7A8FDFFE70020039004900590069002
:103ED00007904FF4005108910A9040F62040C2F23A
:103EE000000003A9FFF7A2F918B1FFE7FCF792FD64
:103EF000FFE740F62040C2F20000FFF75FFC14B07D
:103F000080BD000080B582B040F6B040C2F2000033
:103F1000019044F20041C4F2000101604FF4E1312C
:103F2000416000218160C16001610C2242618161B8
:103F3000C161FFF79FFD18B1FFE7FCF76BFDFFE7DD
:103F400002B080BDFFE7FEE7FFE7FEE788B007901D
:103F500006910592079800F0070004900498C0F1BC
:103F60000700052803D3FFE70420019004E004982C
:103F7000C0F107000190FFE7019803900498043016
:103F8000062803D8FFE70020009003E004980338D8
:103F90000090FFE70098029006980399012202FA28
:103FA00001F101390840029B984005999A40013A75
:103FB0001140084308B070470000000000000000F6
:103FC000EFF30980BFF36F8F0D4B1A6820E9F00FF4
:103FD00010602DE908404FF0500080F3118803F085
:103FE0002DFF4FF0000080F31188BDE808401968EC
:103FF0000868B0E8F00F80F30988BFF36F8F70474F
:10400000F00D002082B00190019840F20001C2F250
:1040100000010968C90844F6D352C1F26202A1FB4B
:104020000221890948430090FFE700BFFFE700989D
:10403000411E00910028F8D1FFE702B07047000050
:10404000074B19680868B0E8F00F80F30988BFF3E0
:104050006F8F4FF0000080F311884EF00D0E704707
:10406000F00D002080B582B00190FFE740F6F841E6
:10407000C2F20001086801300860012002F0F4F982
:10408000F4E7000080B582B00190FFE700F0DCFCAF
:1040900040F62431C2F200010091086000F0A8FA55
:1040A00000F0D2FC00990968401A41F2D861C2F2CE
:1040B00000010860012002F0D7F9E7E780B582B07F
:1040C0004FF0500080F31188BFF36F8FBFF34F8F15
:1040D000009004F089FC40B1FFE74EF60451CEF2A7
:1040E00000014FF080500860FFE700200190019828
:1040F00080F3118802B080BD80B596B008A8019009
:104100003821FCF7DCF90198002102910791069112
:10411000059104910391012308934FF480320A9290
:104120000B910D9309910223109311924FF4E01219
:1041300012921391FEF774FC18B1FFE7FCF76AFCCA
:10414000FFE70F20039002210491002005904FF417
:1041500080620692079003A8FEF748FA18B1FFE7BD
:10416000FCF758FCFFE77021C4F2422101200860EF
:1041700016B080BD7047000080B540F66840C2F2BE
:104180000000FFF7DDF980BD83B002900191029835
:1041900000680090029842F60041C4F20101884292
:1041A0001DD0FFE70298B0F1804F18D0FFE70298CA
:1041B00040F20041C4F20001884210D0FFE70298AB
:1041C00040F60001C4F20001884208D0FFE70298DF
:1041D00040F60041C4F2000188420AD1FFE700988E
:1041E00020F070000090019841680098084300900A
:1041F000FFE7029842F60041C4F2010188421DD057
:10420000FFE70298B0F1804F18D0FFE7029840F224
:104210000041C4F20001884210D0FFE7029840F646
:104220000001C4F20001884208D0FFE7029840F67E
:104230000041C4F2000188420AD1FFE7009820F44F
:10424000407000900198C168009808430090FFE713
:10425000009820F080000199496908430090009877
:1042600002990860019880680299C8620198006804
:1042700002998862029842F60041C4F20101884224
:1042800005D1FFE70198006902990863FFE70299E9
:104290000120486103B0704785B0049003910498F1
:1042A000006A01900499086A20F0010008620498ED
:1042B00040680090049880690290029820F0700095
:1042C0000290029820F0030002900398016802987F
:1042D00008430290019820F0020001900398816841
:1042E000019808430190049842F60041C4F201018C
:1042F00088420ED1FFE7019820F008000190039852
:10430000C168019808430190019820F004000190D1
:10431000FFE7049842F60041C4F20101884213D13C
:10432000FFE7009820F480700090009820F400705F
:1043300000900398416900980843009003988169B0
:10434000009808430090FFE700980499486002989D
:104350000499886103984068049948630198049916
:10436000086205B07047000085B00490039104987E
:10437000006A01900499086A20F01000086204980D
:1043800040680090049880690290029820F4E04010
:104390000290029820F440700290039801680298FD
:1043A00040EA01200290019820F02000019003983B
:1043B0008168019840EA01100190049842F600419A
:1043C000C4F2010188420FD1FFE7019820F080007C
:1043D00001900398C168019840EA0110019001988A
:1043E00020F040000190FFE7049842F60041C4F23B
:1043F0000101884215D1FFE7009820F48060009009
:10440000009820F40060009003984169009840EA09
:104410008100009003988169009840EA8100009033
:10442000FFE700980499486002980499886103980E
:1044300040680499886301980499086205B0704740
:1044400085B0049003910498006A01900499086A69
:1044500020F4807008620498406800900498C06955
:104460000290029820F070000290029820F0030061
:10447000029003980168029808430290019820F482
:104480000070019003988168019840EA0120019032
:10449000049842F60041C4F2010188420FD1FFE7BF
:1044A000019820F4006001900398C168019840EAE7
:1044B00001200190019820F480600190FFE70498AA
:1044C00042F60041C4F20101884215D1FFE700988D
:1044D00020F480500090009820F400500090039841
:1044E0004169009840EA01100090039881690098A2
:1044F00040EA01100090FFE7009804994860029894
:104500000499C861039840680499C86301980499A4
:10451000086205B07047000085B0049003910498CC
:10452000006A01900499086A20F480500862049897
:10453000406800900498C0690290029820F4E0401E
:104540000290029820F4407002900398016802984B
:1045500040EA01200290019820F400500190039855
:104560008168019840EA01300190049842F60041C8
:10457000C4F2010188420BD1FFE7009820F480408B
:10458000009003984169009840EA81100090FFE78D
:1045900000980499486002980499C861039840689B
:1045A0000499086401980499086205B070470000F6
:1045B00080B54820FCF7E8F940F64830C2F2000028
:1045C00044F68121C0F60001FCF738F940F670305E
:1045D000C2F2000044F6F121C0F60001FCF72EF90A
:1045E00040F2FC30C2F2000000F0C0FB80BD0000D1
:1045F00080B582B040F64230C2F20000018801313D
:1046000001800088962813D1FFE740F2FC30C2F207
:104610000000019000F5867001F0CAF8019801F0E1
:10462000C7F840F64231C2F2000100200880FFE7DF
:1046300040F2FC30C2F2000000F084FB40F6403053
:10464000C2F200000178013101700078052814D110
:10465000FFE740F64830C2F2000040F27802C2F2B2
:10466000000240F2FF110823FCF736F940F6403112
:10467000C2F200010020087011E040F22810C2F2DE
:10468000000040F64831C2F200010122032300F08D
:1046900061FD40F20401C2F200010870FFE740F240
:1046A0002810C2F20000806840F27001C2F20001DE
:1046B000086002B080BD000080B584B0039003980C
:1046C0000068006920F44050039A1168D2681043D2
:1046D0000861039988680A69496910430843029090
:1046E00003980068C06841F20C618843029908434E
:1046F00003990968C86003980068406920F4407015
:10470000039A11689269104348610398006843F660
:104710000001C4F20101884204D1FFE7FEF7D4F89A
:10472000019003E0FEF7BEF80190FFE70198192120
:104730004843039A116852689200B0FBF2FC48F2B9
:104740001F52C5F2EB12ACFB02304309642003FB9D
:1047500010CC322000EB0C10A0FB0202F02000EA8B
:10476000521000EB0310C2F343121044886004B0EF
:1047700080BD0000FFE7FEE780B501F0F5FD80BDDC
:1047800080B501F0E9FD01F005FE80BD80B584B083
:1047900003900291019203980068029904F011FEBF
:1047A00020B9FFE70298039908600BE003980068BE
:1047B000019904F00DFE20B9FFE701980399086004
:1047C000FFE7FFE704B080BD85B004908DF80F10BF
:1047D000049840F64831C2F2000188425BD1FFE7FD
:1047E0009DF80F000138014601910A2852D801991D
:1047F000DFE801F0060C131A21272E353C42490050
:1048000040F28000C2F20000029043E040F28000DB
:10481000C2F20000023002903CE040F28000C2F29E
:1048200000000430029035E040F28000C2F2000047
:10483000063002902EE040F27800C2F200000290B2
:1048400028E040F27800C2F200000230029021E03D
:1048500040F27800C2F20000043002901AE040F208
:104860007800C2F200000630029013E040F28800A7
:10487000C2F2000002900DE040F28800C2F2000097
:104880000230029006E040F28800C2F200000430DC
:104890000290FFE763E0049840F67031C2F2000135
:1048A00088425BD1FFE79DF80F0001380146009177
:1048B0000A2852D80099DFE801F0060C131A2127C4
:1048C0002E353C42490040F2C400C2F20000029082
:1048D00043E040F2C400C2F20000023002903CE02B
:1048E00040F2C400C2F200000430029035E040F211
:1048F000C400C2F20000063002902EE040F2BC007C
:10490000C2F20000029028E040F2BC00C2F20000B7
:104910000230029021E040F2BC00C2F200000430FC
:1049200002901AE040F2BC00C2F200000630029091
:1049300013E040F2CC00C2F2000002900DE040F221
:10494000CC00C2F200000230029006E040F2CC003F
:10495000C2F2000004300290FFE7FFE7FFE7029891
:1049600005B0704710B586B000F058F941F2040068
:10497000CEF200000068059040F21C10C2F2000068
:1049800001680598401A40F21011C2F20001086057
:10499000086840F2001EC2F2000EDEF80020B0FBF4
:1049A000F2F240F62830C2F2000000230293436086
:1049B00002600A68D0F800C04168DEF800E0ACFB95
:1049C0000EC401FB0E41B2EB0C0C63EB010240F68E
:1049D0003031C2F200010391C1F800C04A600068A2
:1049E00040F29862C2F200020492106008684968BE
:1049F00040F20412C2F2000201921268FBF763FC5B
:104A0000DDF804C0029B049A014603989180016876
:104A100040689288DCF800C002FB0CF28A1A60F150
:104A2000000040F63831C2F200010A6048600868B0
:104A3000496840F20812C2F200021268FBF743FC18
:104A40000499C88006B010BD80B582B0FFF78AFF18
:104A500040F29861C2F20001086843F609524243ED
:104A600088884FF47A73584300EB8210C988084451
:104A70000021019100900098019902B080BD0000D2
:104A800080B582B00190019800680090112822D072
:104A9000FFE7009840F20521884206D0FFE7009822
:104AA00040F2062188420CD01FE0019800F11C0161
:104AB00040F2FC30C2F2000000F5867000F0BCFD50
:104AC00013E0019800F11C0140F2FC30C2F200003A
:104AD00000F0B2FD09E0019800F11C0140F228103D
:104AE000C2F2000000F0C0FAFFE702B080BD000093
:104AF00080B584B00390039800682E2813D1FFE797
:104B00000398C06902900398006A0190029940F2EC
:104B1000FC30C2F20000009000F00AF90098019900
:104B200000F0FCF8FFE704B080BD000084B0039003
:104B300002910398019002980090019840780099A2
:104B40000870019800780099487004B07047000020
:104B500080B58EB00D908DF833100B920A939DF8AE
:104B60003300C0080590002006909DF833008007B0
:104B7000002818D5FFE7012007900B98C0F34F30AD
:104B800000900B98C0009DF8331001F0030140EA3B
:104B9000410001900A98C0F34F3002900A98C0007B
:104BA0000630039011E00020079000900B99490116
:104BB0009DF8332002F0020241EA021101910290B5
:104BC0000A98400110300390FFE79DF83300C0F3CE
:104BD000800004900E200990012008900D986946ED
:104BE000FBF7F6FF18B1FFE7FBF714FFFFE70EB086
:104BF00080BD000080B582B001900198002104F0D2
:104C0000E7FB18B9FFE70198009004E0019880F0F5
:104C100000400090FFE7009802B080BD81B041F2F3
:104C20000400CEF2000000680090009840F21811D5
:104C3000C2F200010968884208D2FFE740F21C1165
:104C4000C2F20001086801300860FFE7009840F2F6
:104C50001811C2F20001086001B0704780B586B03B
:104C6000DDF824C0DDF820C0049003910292019386
:104C70000398022100F008FD0398019900F0FAFC66
:104C8000039800F0BDFC01F0C3FA089904F0A7FBFB
:104C900060BBFFE7039800F0E5FC01F0B9FA4AF6C3
:104CA000FD51C3F6005104F08CFBF8B9FFE70999F8
:104CB00008880130088009980088322815DBFFE752
:104CC0000999002008800398032100F0DDFC039877
:104CD00000F08EFC0299086003980299096800F0C0
:104CE00097FC01208DF8170008E003E009990020E7
:104CF0000880FFE700208DF81700FFE79DF81700F8
:104D000006B080BD82B001908DF8031001999DF826
:104D1000030081F8700202B07047000082B0019079
:104D2000009101990098C1F8740202B07047000028
:104D300082B00190009101990098C1F8780202B008
:104D40007047000080B582B001900198009000F596
:104D5000067000F05FFE009800F5867000F0A0FC81
:104D6000009800F09DFC02B080BD0000B0B596B088
:104D7000159015980C9000F50670022100220E92F5
:104D800001F056F80C980E99C0F86C026A46116250
:104D9000D16141F26F25C3F683250F95956151616D
:104DA0001161D1600024C4F2163494605160116026
:104DB0000021C4F2FA2109914FF07F520A92002398
:104DC000C4F2A0030B9301F0A5F90C980E9B503090
:104DD00069460B62CB618D614B610B61CB6044F224
:104DE0000002C4F21C6214928A600022C4F2FA32F9
:104DF0000D924A600B600021C4F27A314FF07C5270
:104E000001F088F90C9814996A4651600021C4F2A7
:104E100010211091116040F64831C2F20001129148
:104E200006220323139300F0E9FC09990A9A0B9BCD
:104E30000C98DDF838C000F586701190EE46CEF87B
:104E400020C0CEF81CC0CEF81850CEF814C0CEF852
:104E500010C0CEF80CC0CEF80840CEF804C0CEF892
:104E600000C001F057F90C980D9A0E9BDDF850C068
:104E7000DDF83CE000F5AE7069460B62CB61C1F82D
:104E800018E04B610B61CB60C1F808C04A600B6051
:104E90000021C4F296310022C4F2482201F03AF90E
:104EA000109A11981299139BDDF850E0EC46CCF85B
:104EB00004E0CCF80020052200F0A0FC16B0B0BD44
:104EC00080B58CB00B900B98099090F87002014659
:104ED0000A9140B1FFE70A9801282CD0FFE70A9811
:104EE000022829D062E009980021089100F0CCFB4B
:104EF0000998089900F58670079000F0C5FB09989D
:104F0000089900F0D5FF09980899503000F0D0FFBB
:104F10000798089900F0CCFF0998089900F5AE7041
:104F200000F0C6FF0798089900F07CFB09980899E3
:104F300000F078FB3AE039E0099800F586700290BD
:104F40000321039100F0A0FB0999D1F87802D1F870
:104F5000881201910021C4F23431049104F052FA14
:104F600040F6DB71C4F24901059104F0F1FB0199AF
:104F700004F086F90146029800F04AFB039909986B
:104F800000F082FB0499099AD2F87402D2F88422C4
:104F9000069204F037FA059904F0DAFB069904F05A
:104FA0006FF90146099800F033FBFFE70CB080BDB4
:104FB00080B582B001900198009000F085FC0098C7
:104FC00000F5867000F080FC009800F5067000F097
:104FD000D5FD0098002180F87012C0F87412C0F856
:104FE00078120022CCF26002C0F87C220022CCF2BF
:104FF0001012C0F88022C0F88412C0F8881248F25B
:105000000001C4F24A41C0F88C1248F20001C4F217
:105010003B51C0F8901202B080BD000080B588B04E
:10502000DDF828C00790069105920493049805992D
:1050300004F05AFC039005980290069804F0F4FAE4
:10504000039904F085FB01900A99012088400138FA
:1050500004F0EAFA0146019804F0D4F9029904F048
:105060000FF908B080BD000080B584B003900291B4
:1050700003980090029800780138014601910328B6
:1050800018D80199DFE801F002070C110098029985
:1050900000F088F80EE00098029900F00DF809E0A1
:1050A0000098029900F0CCF804E00098029900F012
:1050B00005F9FFE704B080BD80B58AB0099008917A
:1050C00009980590089A9178D27841EA0221ADF8C2
:1050D0001A10089A1179527941EA0221ADF81C1090
:1050E000089A9179D27941EA0221ADF81E10BDF8F3
:1050F0001A106B46102202921A6048F21F52CCF22C
:105100000B22039248F21F53C4F20B230493FFF7C0
:1051100085FFDDF808C0039A049B01460598C1602D
:10512000BDF81C10EE46CEF800C0FFF777FFDDF8A3
:1051300008C0039A049B014605980161BDF81E1042
:10514000EE46CEF800C0FFF769FF059948610AB046
:1051500080BD000080B58CB00B900A91ADF8262080
:105160008DF825309DF826008DF808009DF8270061
:105170008DF809009DF825008DF80A00CC208DF8E7
:105180000B0004200790002004900590069040F248
:10519000FF6003900A9803A902AA01ABFBF76CFC1D
:1051A0000CB080BD80B58AB009900891099805902F
:1051B000089A9178D27841EA0221ADF81A10089A3B
:1051C0001179527941EA0221ADF81C10089A9179BF
:1051D000D27941EA0221ADF81E10BDF81A106B46D3
:1051E000102202921A6043F23332CCF26B22039205
:1051F00043F23333C4F26B230493FFF70FFFDDF860
:1052000008C0039A049B014605988161BDF81C10F3
:10521000EE46CEF800C0FFF701FFDDF808C0039AA4
:10522000049B01460598C161BDF81E10EE46CEF8FC
:1052300000C0FFF7F3FE059908620AB080BD0000C8
:1052400080B58AB009900891099804900899498816
:1052500005910899898806910899C9880791059947
:105260006B46102201921A600022CCF2B422002375
:10527000C4F2B423FFF7D2FE019A014604980160FC
:1052800006996B461A600022CCF234320292002357
:10529000C4F234330393FFF7C1FEDDF804C0029A71
:1052A000039B0146049881600799EE46CEF800C042
:1052B000FFF7B4FE049948600AB080BD80B58CB099
:1052C0000B900A910B9805900A9A5178927889016F
:1052D00002F0F80241EA920109910A9A9178D37892
:1052E000127901F00301090341EA031141EA1211A5
:1052F00008910A9A11795379927901F00F01890284
:1053000041EA830141EA921107910A998A79C979A0
:1053100002F03F0241EA0221069109996B460E22F2
:1053200002921A600022CBF6807203924FF07E53F5
:105330000493FFF773FEDDF808C0039A049B01464F
:10534000059841620899EE46CEF800C0FFF766FE68
:10535000DDF808C0039A049B01460598816207990D
:10536000EE46CEF800C0FFF759FEDDF808C0039AFC
:10537000049B01460598C1620699EE46CEF800C02E
:10538000FFF74CFE059908630CB080BD81B000901A
:105390000098002180F83C1001B0704780B584B0BF
:1053A00003900398029049F68C73C3F6C6430360DA
:1053B00048F20202C3F69772426043F23331C3F6F9
:1053C00053718160C3600261416118304CF2AC518D
:1053D000C3F2277100914FF65872C3F67F720192A3
:1053E00000F00CFC02980099019A943000F006FC41
:1053F000029804B080BD000080B582B00190019891
:105400000090943000F01EFC0098183000F01AFC58
:10541000009802B080BD000081B00090009800218B
:10542000016141610176417601B0704780B58AB073
:10543000099009980490D0F8A000203005900598B4
:1054400008A9FFF773FB059802300DF11E01FFF765
:105450006DFB0598043007A9FFF768FB0598063037
:105460000DF11A01FFF762FB049890F8B4000128CF
:105470002CD1FFE70499BDF82000D1F8E020801A74
:10548000ADF82200BDF92200B1F8B6104A42C1EBD6
:10549000D271B0EB610F07DAFFE70499D1F8E800A9
:1054A0000130C1F8E80010E00499BDF92200B1F81C
:1054B000B610B0EB510F07DDFFE70499D1F8E80013
:1054C0000138C1F8E800FFE7FFE7FFE70498D0F8EC
:1054D000E810B0F8B620BDF8203001FB0231C0F86A
:1054E000E410D0F8AC100191D0F8E40004F09CF87E
:1054F000014604980091B0F8B60004F0ADF80146FA
:10550000009803F07FFF0021C4F2B43104F020F9C9
:10551000019903F077FF01460498C0F8C810D0F84D
:10552000AC100391D0F8E40004F07EF80146049832
:105530000291B0F8B60004F08FF80146029803F02B
:1055400061FF0146084603F09BFE40F6DB71C4F2A2
:10555000490104F0FDF8039903F054FF0499C1F8E0
:10556000CC00BDF91E0004F05FF847F25071C3F69D
:10557000D65104F0EDF80499D1F8AC1003F042FFD5
:105580000499C1F8D000BDF91E0004F04DF80021C7
:10559000C4F2C00104F0DCF80499D1F8AC1003F0B7
:1055A00031FF0499C1F8D400BDF91C0004F03CF8A7
:1055B0000499C1F8D800BDF91A0004F035F849F291
:1055C0003331C4F2883103F05BFE01460498C0F821
:1055D000DC10BDF82010C0F8E01090F8B40028B935
:1055E000FFE70499012081F8B400FFE70AB080BD0D
:1055F00081B000900098D0F8CC0001B07047000056
:1056000081B000900098D0F8D80001B07047000039
:1056100082B00190009101990098C1F8FC0002B09D
:105620007047000082B00190009101990098C1F884
:10563000040102B07047000080B582B00190009173
:105640000198D0F8BC100131C0F8BC10FFF7EEFE95
:1056500002B080BD81B00090009890F8C40001B005
:105660007047000081B000900098D0F8D00001B0E1
:105670007047000082B00190009101990098C1F834
:10568000000102B07047000082B001908DF8031055
:1056900001999DF8030081F8F00002B07047000006
:1056A00080B588B007900798059090F8F000014603
:1056B0000691032872D80699DFE801F002182E46F9
:1056C0000598D0F8B010D0F8040103F09BFE014615
:1056D00005980491B0F8B80003F0A6FF01460498BD
:1056E00004F036F80599C1F808015CE00598D0F897
:1056F000B010D0F8040103F085FE0146059803912F
:10570000B0F8B80003F090FF0146039804F020F8C9
:105710000599C1F8080146E0059901F15000029091
:10572000D1F8001100F0BCFB02980599D1F8D01017
:1057300000F02EFD029800F0C3FB029800F022FD5D
:105740000599C1F808012EE00598D0F8FC1000F08A
:10575000A7FB0598D0F8CC1000F01AFD059800F0D2
:10576000AFFB059800F00EFD0599C1F8000101F1AD
:1057700050000190D1F8001100F092FB01980599BA
:10578000D1F8D01000F004FD019800F099FB0198C9
:1057900000F0F8FC0599C1F8080104E00599002023
:1057A000C1F80801FFE7059800F072F808B080BD65
:1057B00080B584B0039003990291D1F8BC00D1F870
:1057C000C01088420DD1FFE702980021019180F8B6
:1057D000C41000F06DFB02980199503000F068FB96
:1057E00004E00299012081F8C400FFE70299D1F892
:1057F000BC00C1F8C00004B080BD000080B584B01A
:10580000DDF81CC0DDF818C0039002918DF8072068
:105810008DF80630039800900298006846F2004127
:10582000C4F20001884208D1FFE7009940F29000DD
:10583000C2F20000C1F8A00011E00298006846F62C
:105840000001C4F20001884208D1FFE7009940F24C
:10585000D400C2F20000C1F8A000FFE7FFE7009902
:105860009DF8070081F8A4009DF8060081F8F0007B
:105870000698C1F8AC000798C1F8B00002989DF8EE
:105880000710FEF7A1FF0099C1F8A80004B080BD81
:1058900080B584B0039003980190D0F8A8100091CF
:1058A000D0F8080103F0A4FE009A01460198090A05
:1058B0001170D0F8A8100291D0F8080103F098FEFA
:1058C0000299487004B080BD80B582B00190019803
:1058D000009000F065FC0098503000F061FC0098EA
:1058E0000021C4F21021C0F8AC10002180F8B410DF
:1058F0004FF40052A0F8B62042F21072A0F8B8207F
:10590000C0F8BC10C0F8C01080F8C410032280F8A2
:10591000F020C0F8F410C0F8F810C0F8FC10C0F87F
:105920000011C0F80411C0F8081102B080BD0000D9
:1059300080B582B001900198009000F031FC009891
:10594000503000F02DFC0098002180F8B4104FF486
:105950000052A0F8B6204FF48042A0F8B820C0F85A
:10596000BC10C0F8C01080F8C410032280F8F020EA
:10597000C0F8F410C0F8F810C0F8FC10C0F800111E
:10598000C0F80411C0F80811C0F80C11C0F81011CB
:10599000C0F81411C0F81811C0F81C1102B080BD75
:1059A00080B582B0019001980090FFF7C1FF009888
:1059B00000F59070FFF7BCFF009800F51070FFF73E
:1059C0002BFD009800F51E70FFF7E8FC0098002101
:1059D00080F8551480F8561480F85714C0F85814FD
:1059E000C0F85C1480F86014C0F86414C0F868143F
:1059F00080F86C1480F86D1402B080BD80B582B060
:105A000001900198009000F51E70FFF7F5FC0098DA
:105A100002B080BD10B586B005900598039090F84F
:105A2000511000EBC10251680131516090F85100F2
:105A30000146049120B1FFE70498012863D09BE060
:105A40000398406D00F58670FFF704FE012820D111
:105A5000FFE740F22010C2F200000078C8B9FFE76B
:105A60000398406D00F5867100F52272D0F88032FF
:105A7000D0F890C200F52574EE46CEF80440CEF87A
:105A800000C0FFF7EBF840F22011C2F200010870ED
:105A9000FFE70398406DFFF7DDFD01281FD1FFE709
:105AA00040F22010C2F200004078C0B9FFE703982E
:105AB000416D01F52172D1F87C32D1F88C0201F2EE
:105AC000962EEC46CCF804E0CCF800000846FFF730
:105AD000C5F840F22011C2F200014870FFE740F221
